{
  "contractName": "MetaCoin",
  "abi": [
    {
      "inputs": [],
      "stateMutability": "nonpayable",
      "type": "constructor"
    },
    {
      "anonymous": false,
      "inputs": [
        {
          "indexed": true,
          "internalType": "address",
          "name": "_from",
          "type": "address"
        },
        {
          "indexed": true,
          "internalType": "address",
          "name": "_to",
          "type": "address"
        },
        {
          "indexed": false,
          "internalType": "uint256",
          "name": "_value",
          "type": "uint256"
        }
      ],
      "name": "Transfer",
      "type": "event"
    },
    {
      "inputs": [
        {
          "internalType": "address",
          "name": "receiver",
          "type": "address"
        },
        {
          "internalType": "uint256",
          "name": "amount",
          "type": "uint256"
        }
      ],
      "name": "sendCoin",
      "outputs": [
        {
          "internalType": "bool",
          "name": "sufficient",
          "type": "bool"
        }
      ],
      "stateMutability": "nonpayable",
      "type": "function"
    },
    {
      "inputs": [
        {
          "internalType": "address payable",
          "name": "recipient",
          "type": "address"
        },
        {
          "internalType": "uint256",
          "name": "amount",
          "type": "uint256"
        }
      ],
      "name": "transfer",
      "outputs": [],
      "stateMutability": "payable",
      "type": "function",
      "payable": true
    },
    {
      "inputs": [
        {
          "internalType": "address",
          "name": "addr",
          "type": "address"
        }
      ],
      "name": "getBalanceInEth",
      "outputs": [
        {
          "internalType": "uint256",
          "name": "",
          "type": "uint256"
        }
      ],
      "stateMutability": "view",
      "type": "function",
      "constant": true
    },
    {
      "inputs": [
        {
          "internalType": "address",
          "name": "addr",
          "type": "address"
        }
      ],
      "name": "getBalance",
      "outputs": [
        {
          "internalType": "uint256",
          "name": "",
          "type": "uint256"
        }
      ],
      "stateMutability": "view",
      "type": "function",
      "constant": true
    }
  ],
  "bytecode": "0x608060405234801561001057600080fd5b506127106000803273ffffffffffffffffffffffffffffffffffffffff1673ffffffffffffffffffffffffffffffffffffffff16815260200190815260200160002081905550610733806100656000396000f3fe60806040526004361061003f5760003560e01c80637bd703e81461004457806390b98a1114610081578063a9059cbb146100be578063f8b2cb4f146100da575b600080fd5b34801561005057600080fd5b5061006b60048036038101906100669190610404565b610117565b604051610078919061044a565b60405180910390f35b34801561008d57600080fd5b506100a860048036038101906100a39190610491565b6101a3565b6040516100b591906104ec565b60405180910390f35b6100d860048036038101906100d39190610545565b61030e565b005b3480156100e657600080fd5b5061010160048036038101906100fc9190610404565b610359565b60405161010e919061044a565b60405180910390f35b600073__ConvertLib____________________________6396e4ee3d61013c84610359565b60026040518363ffffffff1660e01b815260040161015b9291906105d9565b602060405180830381865af4158015610178573d6000803e3d6000fd5b505050506040513d601f19601f8201168201806040525081019061019c9190610617565b9050919050565b6000816000803373ffffffffffffffffffffffffffffffffffffffff1673ffffffffffffffffffffffffffffffffffffffff1681526020019081526020016000205410156101f45760009050610308565b816000803373ffffffffffffffffffffffffffffffffffffffff1673ffffffffffffffffffffffffffffffffffffffff16815260200190815260200160002060008282546102429190610673565b92505081905550816000808573ffffffffffffffffffffffffffffffffffffffff1673ffffffffffffffffffffffffffffffffffffffff168152602001908152602001600020600082825461029791906106a7565b925050819055508273ffffffffffffffffffffffffffffffffffffffff163373ffffffffffffffffffffffffffffffffffffffff167fddf252ad1be2c89b69c2b068fc378daa952ba7f163c4a11628f55a4df523b3ef846040516102fb919061044a565b60405180910390a3600190505b92915050565b8173ffffffffffffffffffffffffffffffffffffffff166108fc829081150290604051600060405180830381858888f19350505050158015610354573d6000803e3d6000fd5b505050565b60008060008373ffffffffffffffffffffffffffffffffffffffff1673ffffffffffffffffffffffffffffffffffffffff168152602001908152602001600020549050919050565b600080fd5b600073ffffffffffffffffffffffffffffffffffffffff82169050919050565b60006103d1826103a6565b9050919050565b6103e1816103c6565b81146103ec57600080fd5b50565b6000813590506103fe816103d8565b92915050565b60006020828403121561041a576104196103a1565b5b6000610428848285016103ef565b91505092915050565b6000819050919050565b61044481610431565b82525050565b600060208201905061045f600083018461043b565b92915050565b61046e81610431565b811461047957600080fd5b50565b60008135905061048b81610465565b92915050565b600080604083850312156104a8576104a76103a1565b5b60006104b6858286016103ef565b92505060206104c78582860161047c565b9150509250929050565b60008115159050919050565b6104e6816104d1565b82525050565b600060208201905061050160008301846104dd565b92915050565b6000610512826103a6565b9050919050565b61052281610507565b811461052d57600080fd5b50565b60008135905061053f81610519565b92915050565b6000806040838503121561055c5761055b6103a1565b5b600061056a85828601610530565b925050602061057b8582860161047c565b9150509250929050565b61058e81610431565b82525050565b6000819050919050565b6000819050919050565b60006105c36105be6105b984610594565b61059e565b610431565b9050919050565b6105d3816105a8565b82525050565b60006040820190506105ee6000830185610585565b6105fb60208301846105ca565b9392505050565b60008151905061061181610465565b92915050565b60006020828403121561062d5761062c6103a1565b5b600061063b84828501610602565b91505092915050565b7f4e487b7100000000000000000000000000000000000000000000000000000000600052601160045260246000fd5b600061067e82610431565b915061068983610431565b92508282101561069c5761069b610644565b5b828203905092915050565b60006106b282610431565b91506106bd83610431565b9250827fffffffffffffffffffffffffffffffffffffffffffffffffffffffffffffffff038211156106f2576106f1610644565b5b82820190509291505056fea26469706673582212207f8e63f8ef339b28da7678b38e0befe475d03cce0572cb043fb3543567bde25b64736f6c634300080d0033",
  "immutableReferences": {},
  "source": "// SPDX-License-Identifier: MIT\n// Tells the Solidity compiler to compile only from v0.8.13 to v0.9.0\npragma solidity ^0.8.13;\n\nimport \"./ConvertLib.sol\";\n\n// This is just a simple example of a coin-like contract.\n// It is not ERC20 compatible and cannot be expected to talk to other\n// coin/token contracts.\n\ncontract MetaCoin {\n\tmapping (address => uint) balances;\n\n\tevent Transfer(address indexed _from, address indexed _to, uint256 _value);\n\n\tconstructor() {\n\t\tbalances[tx.origin] = 10000;\n\t}\n\n\tfunction sendCoin(address receiver, uint amount) public returns(bool sufficient) {\n\t\tif (balances[msg.sender] < amount) return false;\n\t\tbalances[msg.sender] -= amount;\n\t\tbalances[receiver] += amount;\n\t\temit Transfer(msg.sender, receiver, amount);\n\t\treturn true;\n\t}\n\n\tfunction transfer(address payable recipient,uint256 amount) public payable {\n        // uint256 amount = msg.value;\n        payable(recipient).transfer(amount);\n    }\n\n\tfunction getBalanceInEth(address addr) public view returns(uint){\n\t\treturn ConvertLib.convert(getBalance(addr),2);\n\t}\n\n\tfunction getBalance(address addr) public view returns(uint) {\n\t\treturn balances[addr];\n\t}\n}\n",
  "sourcePath": "D:\\vscode\\truffleTest\\contracts\\MetaCoin.sol",
  "compiler": {
    "name": "solc",
    "version": "0.8.13+commit.abaa5c0e.Emscripten.clang"
  },
  "schemaVersion": "3.4.16",
  "updatedAt": "2025-02-22T10:10:38.701Z",
  "networkType": "ethereum",
  "devdoc": {
    "kind": "dev",
    "methods": {},
    "version": 1
  },
  "userdoc": {
    "kind": "user",
    "methods": {},
    "version": 1
  }
}