{
  "contractName": "Voting",
  "abi": [
    {
      "inputs": [
        {
          "internalType": "uint256",
          "name": "_durationInMinutes",
          "type": "uint256"
        }
      ],
      "stateMutability": "nonpayable",
      "type": "constructor"
    },
    {
      "anonymous": false,
      "inputs": [
        {
          "indexed": false,
          "internalType": "uint256",
          "name": "proposalId",
          "type": "uint256"
        },
        {
          "indexed": false,
          "internalType": "string",
          "name": "description",
          "type": "string"
        }
      ],
      "name": "ProposalCreated",
      "type": "event"
    },
    {
      "anonymous": false,
      "inputs": [
        {
          "indexed": false,
          "internalType": "uint256",
          "name": "proposalId",
          "type": "uint256"
        },
        {
          "indexed": false,
          "internalType": "address",
          "name": "voter",
          "type": "address"
        },
        {
          "indexed": false,
          "internalType": "uint256",
          "name": "weight",
          "type": "uint256"
        }
      ],
      "name": "Voted",
      "type": "event"
    },
    {
      "inputs": [],
      "name": "endTime",
      "outputs": [
        {
          "internalType": "uint256",
          "name": "",
          "type": "uint256"
        }
      ],
      "stateMutability": "view",
      "type": "function",
      "constant": true
    },
    {
      "inputs": [],
      "name": "owner",
      "outputs": [
        {
          "internalType": "address",
          "name": "",
          "type": "address"
        }
      ],
      "stateMutability": "view",
      "type": "function",
      "constant": true
    },
    {
      "inputs": [],
      "name": "proposalCount",
      "outputs": [
        {
          "internalType": "uint256",
          "name": "",
          "type": "uint256"
        }
      ],
      "stateMutability": "view",
      "type": "function",
      "constant": true
    },
    {
      "inputs": [
        {
          "internalType": "uint256",
          "name": "",
          "type": "uint256"
        }
      ],
      "name": "proposals",
      "outputs": [
        {
          "internalType": "string",
          "name": "description",
          "type": "string"
        },
        {
          "internalType": "uint256",
          "name": "voteCount",
          "type": "uint256"
        },
        {
          "internalType": "bool",
          "name": "exists",
          "type": "bool"
        }
      ],
      "stateMutability": "view",
      "type": "function",
      "constant": true
    },
    {
      "inputs": [
        {
          "internalType": "address",
          "name": "",
          "type": "address"
        }
      ],
      "name": "proposers",
      "outputs": [
        {
          "internalType": "bool",
          "name": "",
          "type": "bool"
        }
      ],
      "stateMutability": "view",
      "type": "function",
      "constant": true
    },
    {
      "inputs": [],
      "name": "startTime",
      "outputs": [
        {
          "internalType": "uint256",
          "name": "",
          "type": "uint256"
        }
      ],
      "stateMutability": "view",
      "type": "function",
      "constant": true
    },
    {
      "inputs": [
        {
          "internalType": "address",
          "name": "",
          "type": "address"
        }
      ],
      "name": "voteWeight",
      "outputs": [
        {
          "internalType": "uint256",
          "name": "",
          "type": "uint256"
        }
      ],
      "stateMutability": "view",
      "type": "function",
      "constant": true
    },
    {
      "inputs": [
        {
          "internalType": "address",
          "name": "",
          "type": "address"
        }
      ],
      "name": "voters",
      "outputs": [
        {
          "internalType": "bool",
          "name": "",
          "type": "bool"
        }
      ],
      "stateMutability": "view",
      "type": "function",
      "constant": true
    },
    {
      "inputs": [
        {
          "internalType": "address",
          "name": "_proposer",
          "type": "address"
        }
      ],
      "name": "addProposer",
      "outputs": [],
      "stateMutability": "nonpayable",
      "type": "function"
    },
    {
      "inputs": [
        {
          "internalType": "address",
          "name": "_proposer",
          "type": "address"
        }
      ],
      "name": "removeProposer",
      "outputs": [],
      "stateMutability": "nonpayable",
      "type": "function"
    },
    {
      "inputs": [
        {
          "internalType": "address",
          "name": "_voter",
          "type": "address"
        },
        {
          "internalType": "uint256",
          "name": "_weight",
          "type": "uint256"
        }
      ],
      "name": "setVoteWeight",
      "outputs": [],
      "stateMutability": "nonpayable",
      "type": "function"
    },
    {
      "inputs": [
        {
          "internalType": "string",
          "name": "_description",
          "type": "string"
        }
      ],
      "name": "createProposal",
      "outputs": [],
      "stateMutability": "nonpayable",
      "type": "function"
    },
    {
      "inputs": [
        {
          "internalType": "uint256",
          "name": "_proposalId",
          "type": "uint256"
        }
      ],
      "name": "vote",
      "outputs": [],
      "stateMutability": "nonpayable",
      "type": "function"
    },
    {
      "inputs": [
        {
          "internalType": "uint256",
          "name": "_proposalId",
          "type": "uint256"
        }
      ],
      "name": "getVoteCount",
      "outputs": [
        {
          "internalType": "uint256",
          "name": "",
          "type": "uint256"
        }
      ],
      "stateMutability": "view",
      "type": "function",
      "constant": true
    },
    {
      "inputs": [],
      "name": "getWinningProposal",
      "outputs": [
        {
          "internalType": "uint256",
          "name": "winningProposalId",
          "type": "uint256"
        }
      ],
      "stateMutability": "view",
      "type": "function",
      "constant": true
    },
    {
      "inputs": [
        {
          "internalType": "uint256",
          "name": "_proposalId",
          "type": "uint256"
        }
      ],
      "name": "getVotePercentage",
      "outputs": [
        {
          "internalType": "uint256",
          "name": "",
          "type": "uint256"
        }
      ],
      "stateMutability": "view",
      "type": "function",
      "constant": true
    }
  ],
  "bytecode": "0x60806040523480156200001157600080fd5b5060405162001a0838038062001a08833981810160405281019062000037919062000142565b42600681905550603c816200004d9190620001a3565b6006546200005c919062000204565b60078190555033600460006101000a81548173ffffffffffffffffffffffffffffffffffffffff021916908373ffffffffffffffffffffffffffffffffffffffff1602179055506001600360003373ffffffffffffffffffffffffffffffffffffffff1673ffffffffffffffffffffffffffffffffffffffff16815260200190815260200160002060006101000a81548160ff0219169083151502179055505062000261565b600080fd5b6000819050919050565b6200011c8162000107565b81146200012857600080fd5b50565b6000815190506200013c8162000111565b92915050565b6000602082840312156200015b576200015a62000102565b5b60006200016b848285016200012b565b91505092915050565b7f4e487b7100000000000000000000000000000000000000000000000000000000600052601160045260246000fd5b6000620001b08262000107565b9150620001bd8362000107565b9250817fffffffffffffffffffffffffffffffffffffffffffffffffffffffffffffffff0483118215151615620001f957620001f862000174565b5b828202905092915050565b6000620002118262000107565b91506200021e8362000107565b9250827fffffffffffffffffffffffffffffffffffffffffffffffffffffffffffffffff0382111562000256576200025562000174565b5b828201905092915050565b61179780620002716000396000f3fe608060405234801561001057600080fd5b50600436106101005760003560e01c80637eadebfe11610097578063b03cd41811610066578063b03cd418146102c3578063b2c2f2e8146102df578063cf8e65f91461030f578063da35c6641461032b57610100565b80637eadebfe146102275780638da5cb5b14610257578063a3ec138d14610275578063a5134620146102a557610100565b80633197cbb6116100d35780633197cbb61461019f57806349c2a1a6146101bd57806370a0dc52146101d957806378e979251461020957610100565b80630121b93f14610105578063013cf08b1461012157806309d632d314610153578063181774971461016f575b600080fd5b61011f600480360381019061011a9190610dfc565b610349565b005b61013b60048036038101906101369190610dfc565b6105d6565b60405161014a93929190610eec565b60405180910390f35b61016d60048036038101906101689190610f88565b610695565b005b61018960048036038101906101849190610f88565b610780565b6040516101969190610fb5565b60405180910390f35b6101a76107a0565b6040516101b49190610fd0565b60405180910390f35b6101d760048036038101906101d29190611120565b6107a6565b005b6101f360048036038101906101ee9190610dfc565b610905565b6040516102009190610fd0565b60405180910390f35b6102116109f9565b60405161021e9190610fd0565b60405180910390f35b610241600480360381019061023c9190610f88565b6109ff565b60405161024e9190610fd0565b60405180910390f35b61025f610a17565b60405161026c9190611178565b60405180910390f35b61028f600480360381019061028a9190610f88565b610a3d565b60405161029c9190610fb5565b60405180910390f35b6102ad610a5d565b6040516102ba9190610fd0565b60405180910390f35b6102dd60048036038101906102d89190610f88565b610ac5565b005b6102f960048036038101906102f49190610dfc565b610bb0565b6040516103069190610fd0565b60405180910390f35b61032960048036038101906103249190611193565b610c31565b005b610333610d09565b6040516103409190610fd0565b60405180910390f35b60065442101561038e576040517f08c379a00000000000000000000000000000000000000000000000000000000081526004016103859061121f565b60405180910390fd5b6007544211156103d3576040517f08c379a00000000000000000000000000000000000000000000000000000000081526004016103ca9061128b565b60405180910390fd5b60008082815260200190815260200160002060020160009054906101000a900460ff16610435576040517f08c379a000000000000000000000000000000000000000000000000000000000815260040161042c906112f7565b60405180910390fd5b600260003373ffffffffffffffffffffffffffffffffffffffff1673ffffffffffffffffffffffffffffffffffffffff16815260200190815260200160002060009054906101000a900460ff16156104c2576040517f08c379a00000000000000000000000000000000000000000000000000000000081526004016104b990611363565b60405180910390fd5b6000600160003373ffffffffffffffffffffffffffffffffffffffff1673ffffffffffffffffffffffffffffffffffffffff1681526020019081526020016000205490506000810361051357600190505b80600080848152602001908152602001600020600101600082825461053891906113b2565b925050819055506001600260003373ffffffffffffffffffffffffffffffffffffffff1673ffffffffffffffffffffffffffffffffffffffff16815260200190815260200160002060006101000a81548160ff0219169083151502179055507f1abe610cf2bf87e57dcc1181fcf5ac0934e843d8344ab9eed6e86c799f62585e8233836040516105ca93929190611408565b60405180910390a15050565b60006020528060005260406000206000915090508060000180546105f99061146e565b80601f01602080910402602001604051908101604052809291908181526020018280546106259061146e565b80156106725780601f1061064757610100808354040283529160200191610672565b820191906000526020600020905b81548152906001019060200180831161065557829003601f168201915b5050505050908060010154908060020160009054906101000a900460ff16905083565b600460009054906101000a900473ffffffffffffffffffffffffffffffffffffffff1673ffffffffffffffffffffffffffffffffffffffff163373ffffffffffffffffffffffffffffffffffffffff1614610725576040517f08c379a000000000000000000000000000000000000000000000000000000000815260040161071c90611511565b60405180910390fd5b6000600360008373ffffffffffffffffffffffffffffffffffffffff1673ffffffffffffffffffffffffffffffffffffffff16815260200190815260200160002060006101000a81548160ff02191690831515021790555050565b60036020528060005260406000206000915054906101000a900460ff1681565b60075481565b600360003373ffffffffffffffffffffffffffffffffffffffff1673ffffffffffffffffffffffffffffffffffffffff16815260200190815260200160002060009054906101000a900460ff16610832576040517f08c379a0000000000000000000000000000000000000000000000000000000008152600401610829906115a3565b60405180910390fd5b60056000815480929190610845906115c3565b91905055506040518060600160405280828152602001600081526020016001151581525060008060055481526020019081526020016000206000820151816000019080519060200190610899929190610d0f565b506020820151816001015560408201518160020160006101000a81548160ff0219169083151502179055509050507f9c770c289ab5bf7e57cb1d23c8ceae993aea46eb64847072fd3d78ca60d3e432600554826040516108fa92919061160b565b60405180910390a150565b600080600083815260200190815260200160002060020160009054906101000a900460ff16610969576040517f08c379a0000000000000000000000000000000000000000000000000000000008152600401610960906112f7565b60405180910390fd5b600080600190505b60055481116109b057600080828152602001908152602001600020600101548261099b91906113b2565b915080806109a8906115c3565b915050610971565b50600081036109c35760009150506109f4565b806064600080868152602001908152602001600020600101546109e6919061163b565b6109f091906116c4565b9150505b919050565b60065481565b60016020528060005260406000206000915090505481565b600460009054906101000a900473ffffffffffffffffffffffffffffffffffffffff1681565b60026020528060005260406000206000915054906101000a900460ff1681565b600080600090506000600190505b6005548111610ac05781600080838152602001908152602001600020600101541115610aad576000808281526020019081526020016000206001015491508092505b8080610ab8906115c3565b915050610a6b565b505090565b600460009054906101000a900473ffffffffffffffffffffffffffffffffffffffff1673ffffffffffffffffffffffffffffffffffffffff163373ffffffffffffffffffffffffffffffffffffffff1614610b55576040517f08c379a0000000000000000000000000000000000000000000000000000000008152600401610b4c90611511565b60405180910390fd5b6001600360008373ffffffffffffffffffffffffffffffffffffffff1673ffffffffffffffffffffffffffffffffffffffff16815260200190815260200160002060006101000a81548160ff02191690831515021790555050565b600080600083815260200190815260200160002060020160009054906101000a900460ff16610c14576040517f08c379a0000000000000000000000000000000000000000000000000000000008152600401610c0b90611741565b60405180910390fd5b600080838152602001908152602001600020600101549050919050565b600460009054906101000a900473ffffffffffffffffffffffffffffffffffffffff1673ffffffffffffffffffffffffffffffffffffffff163373ffffffffffffffffffffffffffffffffffffffff1614610cc1576040517f08c379a0000000000000000000000000000000000000000000000000000000008152600401610cb890611511565b60405180910390fd5b80600160008473ffffffffffffffffffffffffffffffffffffffff1673ffffffffffffffffffffffffffffffffffffffff168152602001908152602001600020819055505050565b60055481565b828054610d1b9061146e565b90600052602060002090601f016020900481019282610d3d5760008555610d84565b82601f10610d5657805160ff1916838001178555610d84565b82800160010185558215610d84579182015b82811115610d83578251825591602001919060010190610d68565b5b509050610d919190610d95565b5090565b5b80821115610dae576000816000905550600101610d96565b5090565b6000604051905090565b600080fd5b600080fd5b6000819050919050565b610dd981610dc6565b8114610de457600080fd5b50565b600081359050610df681610dd0565b92915050565b600060208284031215610e1257610e11610dbc565b5b6000610e2084828501610de7565b91505092915050565b600081519050919050565b600082825260208201905092915050565b60005b83811015610e63578082015181840152602081019050610e48565b83811115610e72576000848401525b50505050565b6000601f19601f8301169050919050565b6000610e9482610e29565b610e9e8185610e34565b9350610eae818560208601610e45565b610eb781610e78565b840191505092915050565b610ecb81610dc6565b82525050565b60008115159050919050565b610ee681610ed1565b82525050565b60006060820190508181036000830152610f068186610e89565b9050610f156020830185610ec2565b610f226040830184610edd565b949350505050565b600073ffffffffffffffffffffffffffffffffffffffff82169050919050565b6000610f5582610f2a565b9050919050565b610f6581610f4a565b8114610f7057600080fd5b50565b600081359050610f8281610f5c565b92915050565b600060208284031215610f9e57610f9d610dbc565b5b6000610fac84828501610f73565b91505092915050565b6000602082019050610fca6000830184610edd565b92915050565b6000602082019050610fe56000830184610ec2565b92915050565b600080fd5b600080fd5b7f4e487b7100000000000000000000000000000000000000000000000000000000600052604160045260246000fd5b61102d82610e78565b810181811067ffffffffffffffff8211171561104c5761104b610ff5565b5b80604052505050565b600061105f610db2565b905061106b8282611024565b919050565b600067ffffffffffffffff82111561108b5761108a610ff5565b5b61109482610e78565b9050602081019050919050565b82818337600083830152505050565b60006110c36110be84611070565b611055565b9050828152602081018484840111156110df576110de610ff0565b5b6110ea8482856110a1565b509392505050565b600082601f83011261110757611106610feb565b5b81356111178482602086016110b0565b91505092915050565b60006020828403121561113657611135610dbc565b5b600082013567ffffffffffffffff81111561115457611153610dc1565b5b611160848285016110f2565b91505092915050565b61117281610f4a565b82525050565b600060208201905061118d6000830184611169565b92915050565b600080604083850312156111aa576111a9610dbc565b5b60006111b885828601610f73565b92505060206111c985828601610de7565b9150509250929050565b7fe68a95e7a5a8e8bf98e69caae5bc80e5a78b0000000000000000000000000000600082015250565b6000611209601283610e34565b9150611214826111d3565b602082019050919050565b60006020820190508181036000830152611238816111fc565b9050919050565b7fe68a95e7a5a8e5b7b2e7bb93e69d9f0000000000000000000000000000000000600082015250565b6000611275600f83610e34565b91506112808261123f565b602082019050919050565b600060208201905081810360008301526112a481611268565b9050919050565b7fe68f90e6a188e4b88de5ad98e59ca80000000000000000000000000000000000600082015250565b60006112e1600f83610e34565b91506112ec826112ab565b602082019050919050565b60006020820190508181036000830152611310816112d4565b9050919050565b7fe682a8e5b7b2e7bb8fe68a95e7a5a80000000000000000000000000000000000600082015250565b600061134d600f83610e34565b915061135882611317565b602082019050919050565b6000602082019050818103600083015261137c81611340565b9050919050565b7f4e487b7100000000000000000000000000000000000000000000000000000000600052601160045260246000fd5b60006113bd82610dc6565b91506113c883610dc6565b9250827fffffffffffffffffffffffffffffffffffffffffffffffffffffffffffffffff038211156113fd576113fc611383565b5b828201905092915050565b600060608201905061141d6000830186610ec2565b61142a6020830185611169565b6114376040830184610ec2565b949350505050565b7f4e487b7100000000000000000000000000000000000000000000000000000000600052602260045260246000fd5b6000600282049050600182168061148657607f821691505b6020821081036114995761149861143f565b5b50919050565b7fe58faae69c89e59088e7baa6e68ba5e69c89e88085e58fafe4bba5e8b083e79460008201527fa8e6ada4e587bde695b000000000000000000000000000000000000000000000602082015250565b60006114fb602a83610e34565b91506115068261149f565b604082019050919050565b6000602082019050818103600083015261152a816114ee565b9050919050565b7fe58faae69c89e68e88e69d83e68f90e6a188e4babae58fafe4bba5e5889be5bb60008201527fbae68f90e6a18800000000000000000000000000000000000000000000000000602082015250565b600061158d602783610e34565b915061159882611531565b604082019050919050565b600060208201905081810360008301526115bc81611580565b9050919050565b60006115ce82610dc6565b91507fffffffffffffffffffffffffffffffffffffffffffffffffffffffffffffffff8203611600576115ff611383565b5b600182019050919050565b60006040820190506116206000830185610ec2565b81810360208301526116328184610e89565b90509392505050565b600061164682610dc6565b915061165183610dc6565b9250817fffffffffffffffffffffffffffffffffffffffffffffffffffffffffffffffff048311821515161561168a57611689611383565b5b828202905092915050565b7f4e487b7100000000000000000000000000000000000000000000000000000000600052601260045260246000fd5b60006116cf82610dc6565b91506116da83610dc6565b9250826116ea576116e9611695565b5b828204905092915050565b7f50726f706f73616c20646f6573206e6f74206578697374000000000000000000600082015250565b600061172b601783610e34565b9150611736826116f5565b602082019050919050565b6000602082019050818103600083015261175a8161171e565b905091905056fea26469706673582212204f6f523245a35927446ccf65d64a602c1234e99200762f59261f771364336a2b64736f6c634300080d0033",
  "immutableReferences": {},
  "source": "// SPDX-License-Identifier: MIT\r\npragma solidity ^0.8.13;\r\n\r\ncontract Voting {\r\n    // \r\n    constructor(uint _durationInMinutes) {\r\n        startTime = block.timestamp;\r\n        endTime = startTime + (_durationInMinutes * 1 minutes);\r\n        owner = msg.sender;\r\n        proposers[msg.sender] = true;\r\n    }\r\n    // \r\n    struct Proposal {\r\n        string description; // \r\n        uint voteCount;     // \r\n        bool exists;       // ,mappingkey  \r\n    }\r\n\r\n    // ID\r\n    mapping(uint => Proposal) public proposals;\r\n\r\n    // \r\n    mapping(address => uint) public voteWeight;\r\n\r\n    // \r\n    mapping(address => bool) public voters;\r\n\r\n    //  \r\n    mapping(address => bool) public proposers;\r\n\r\n    // \r\n    address public owner;\r\n\r\n    // ID\r\n    uint public proposalCount;\r\n\r\n    // \r\n    uint public startTime;  // \r\n    uint public endTime;    // \r\n\r\n    // \r\n    event ProposalCreated(uint proposalId, string description);\r\n\r\n    // \r\n    event Voted(uint proposalId, address voter, uint weight);\r\n\r\n    // \r\n    modifier voteOpen() {\r\n        require(block.timestamp >= startTime, unicode\"\");\r\n        require(block.timestamp <= endTime, unicode\"\");\r\n        _;\r\n    }\r\n\r\n    // \r\n    modifier onlyOwner() {\r\n        require(msg.sender == owner, unicode\"\");\r\n        _;\r\n    }\r\n\r\n    modifier onlyProposer() {\r\n        require(proposers[msg.sender], unicode\"\");\r\n        _;\r\n    }\r\n\r\n    // \r\n    function addProposer(address _proposer) public onlyOwner {\r\n        proposers[_proposer] = true;\r\n    }\r\n\r\n    function removeProposer(address _proposer) public onlyOwner {\r\n        proposers[_proposer] = false;\r\n    }\r\n\r\n    // \r\n    function setVoteWeight(address _voter, uint _weight) public onlyOwner{\r\n        // require(msg.sender == owner, unicode\"\");\r\n        voteWeight[_voter] = _weight;\r\n    }\r\n\r\n    // \r\n    function createProposal(string memory _description) public onlyProposer {\r\n        proposalCount++;\r\n        proposals[proposalCount] = Proposal({\r\n            description: _description,\r\n            voteCount: 0,\r\n            exists: true\r\n        });\r\n\r\n        emit ProposalCreated(proposalCount, _description);\r\n    }\r\n\r\n    // \r\n    function vote(uint _proposalId) public voteOpen {\r\n        require(proposals[_proposalId].exists, unicode\"\");\r\n        require(!voters[msg.sender], unicode\"\");\r\n\r\n        uint weight = voteWeight[msg.sender];\r\n        if(weight == 0) weight = 1; // 1\r\n\r\n        proposals[_proposalId].voteCount += weight;\r\n        voters[msg.sender] = true;\r\n\r\n        emit Voted(_proposalId, msg.sender, weight);\r\n    }\r\n\r\n    // \r\n    function getVoteCount(uint _proposalId) public view returns (uint) {\r\n        require(proposals[_proposalId].exists, \"Proposal does not exist\");\r\n        return proposals[_proposalId].voteCount;\r\n    }\r\n\r\n    // ID\r\n    function getWinningProposal() public view returns (uint winningProposalId) {\r\n        uint winningVoteCount = 0;\r\n\r\n        for (uint i = 1; i <= proposalCount; i++) {\r\n            if (proposals[i].voteCount > winningVoteCount) {\r\n                winningVoteCount = proposals[i].voteCount;\r\n                winningProposalId = i;\r\n            }\r\n        }\r\n    }\r\n\r\n    // \r\n    function getVotePercentage(uint _proposalId) public view returns (uint) {\r\n        require(proposals[_proposalId].exists, unicode\"\");\r\n        uint totalVotes = 0;\r\n        \r\n        for(uint i = 1; i <= proposalCount; i++) {\r\n            totalVotes += proposals[i].voteCount;\r\n        }\r\n        \r\n        if(totalVotes == 0) return 0;\r\n        return (proposals[_proposalId].voteCount * 100) / totalVotes;\r\n    }\r\n}",
  "sourcePath": "D:\\vscode\\truffleTest\\contracts\\vote.sol",
  "compiler": {
    "name": "solc",
    "version": "0.8.13+commit.abaa5c0e.Emscripten.clang"
  },
  "schemaVersion": "3.4.16",
  "updatedAt": "2025-02-22T10:10:38.838Z",
  "networkType": "ethereum",
  "devdoc": {
    "kind": "dev",
    "methods": {},
    "version": 1
  },
  "userdoc": {
    "kind": "user",
    "methods": {},
    "version": 1
  }
}