{
  "contractName": "Voting",
  "abi": [
    {
      "anonymous": false,
      "inputs": [
        {
          "indexed": false,
          "internalType": "uint256",
          "name": "proposalId",
          "type": "uint256"
        },
        {
          "indexed": false,
          "internalType": "string",
          "name": "description",
          "type": "string"
        }
      ],
      "name": "ProposalCreated",
      "type": "event"
    },
    {
      "anonymous": false,
      "inputs": [
        {
          "indexed": false,
          "internalType": "uint256",
          "name": "proposalId",
          "type": "uint256"
        },
        {
          "indexed": false,
          "internalType": "address",
          "name": "voter",
          "type": "address"
        }
      ],
      "name": "Voted",
      "type": "event"
    },
    {
      "inputs": [],
      "name": "proposalCount",
      "outputs": [
        {
          "internalType": "uint256",
          "name": "",
          "type": "uint256"
        }
      ],
      "stateMutability": "view",
      "type": "function",
      "constant": true
    },
    {
      "inputs": [
        {
          "internalType": "uint256",
          "name": "",
          "type": "uint256"
        }
      ],
      "name": "proposals",
      "outputs": [
        {
          "internalType": "string",
          "name": "description",
          "type": "string"
        },
        {
          "internalType": "uint256",
          "name": "voteCount",
          "type": "uint256"
        },
        {
          "internalType": "bool",
          "name": "exists",
          "type": "bool"
        }
      ],
      "stateMutability": "view",
      "type": "function",
      "constant": true
    },
    {
      "inputs": [
        {
          "internalType": "address",
          "name": "",
          "type": "address"
        }
      ],
      "name": "voters",
      "outputs": [
        {
          "internalType": "bool",
          "name": "",
          "type": "bool"
        }
      ],
      "stateMutability": "view",
      "type": "function",
      "constant": true
    },
    {
      "inputs": [
        {
          "internalType": "string",
          "name": "_description",
          "type": "string"
        }
      ],
      "name": "createProposal",
      "outputs": [],
      "stateMutability": "nonpayable",
      "type": "function"
    },
    {
      "inputs": [
        {
          "internalType": "uint256",
          "name": "_proposalId",
          "type": "uint256"
        }
      ],
      "name": "vote",
      "outputs": [],
      "stateMutability": "nonpayable",
      "type": "function"
    },
    {
      "inputs": [
        {
          "internalType": "uint256",
          "name": "_proposalId",
          "type": "uint256"
        }
      ],
      "name": "getVoteCount",
      "outputs": [
        {
          "internalType": "uint256",
          "name": "",
          "type": "uint256"
        }
      ],
      "stateMutability": "view",
      "type": "function",
      "constant": true
    },
    {
      "inputs": [],
      "name": "getWinningProposal",
      "outputs": [
        {
          "internalType": "uint256",
          "name": "winningProposalId",
          "type": "uint256"
        }
      ],
      "stateMutability": "view",
      "type": "function",
      "constant": true
    }
  ],
  "bytecode": "0x608060405234801561001057600080fd5b50610c7d806100206000396000f3fe608060405234801561001057600080fd5b506004361061007d5760003560e01c8063a3ec138d1161005b578063a3ec138d146100ec578063a51346201461011c578063b2c2f2e81461013a578063da35c6641461016a5761007d565b80630121b93f14610082578063013cf08b1461009e57806349c2a1a6146100d0575b600080fd5b61009c600480360381019061009791906106c3565b610188565b005b6100b860048036038101906100b391906106c3565b610335565b6040516100c7939291906107b3565b60405180910390f35b6100ea60048036038101906100e59190610926565b6103f4565b005b610106600480360381019061010191906109cd565b6104c7565b60405161011391906109fa565b60405180910390f35b6101246104e7565b6040516101319190610a15565b60405180910390f35b610154600480360381019061014f91906106c3565b61054f565b6040516101619190610a15565b60405180910390f35b6101726105d0565b60405161017f9190610a15565b60405180910390f35b60008082815260200190815260200160002060020160009054906101000a900460ff166101ea576040517f08c379a00000000000000000000000000000000000000000000000000000000081526004016101e190610a7c565b60405180910390fd5b600160003373ffffffffffffffffffffffffffffffffffffffff1673ffffffffffffffffffffffffffffffffffffffff16815260200190815260200160002060009054906101000a900460ff1615610277576040517f08c379a000000000000000000000000000000000000000000000000000000000815260040161026e90610ae8565b60405180910390fd5b600080828152602001908152602001600020600101600081548092919061029d90610b37565b919050555060018060003373ffffffffffffffffffffffffffffffffffffffff1673ffffffffffffffffffffffffffffffffffffffff16815260200190815260200160002060006101000a81548160ff0219169083151502179055507f030b0f8dcd86a031eddb071f91882edeac8173663ba775713b677b42b51be44b813360405161032a929190610b8e565b60405180910390a150565b600060205280600052604060002060009150905080600001805461035890610be6565b80601f016020809104026020016040519081016040528092919081815260200182805461038490610be6565b80156103d15780601f106103a6576101008083540402835291602001916103d1565b820191906000526020600020905b8154815290600101906020018083116103b457829003601f168201915b5050505050908060010154908060020160009054906101000a900460ff16905083565b6002600081548092919061040790610b37565b9190505550604051806060016040528082815260200160008152602001600115158152506000806002548152602001908152602001600020600082015181600001908051906020019061045b9291906105d6565b506020820151816001015560408201518160020160006101000a81548160ff0219169083151502179055509050507f9c770c289ab5bf7e57cb1d23c8ceae993aea46eb64847072fd3d78ca60d3e432600254826040516104bc929190610c17565b60405180910390a150565b60016020528060005260406000206000915054906101000a900460ff1681565b600080600090506000600190505b600254811161054a5781600080838152602001908152602001600020600101541115610537576000808281526020019081526020016000206001015491508092505b808061054290610b37565b9150506104f5565b505090565b600080600083815260200190815260200160002060020160009054906101000a900460ff166105b3576040517f08c379a00000000000000000000000000000000000000000000000000000000081526004016105aa90610a7c565b60405180910390fd5b600080838152602001908152602001600020600101549050919050565b60025481565b8280546105e290610be6565b90600052602060002090601f016020900481019282610604576000855561064b565b82601f1061061d57805160ff191683800117855561064b565b8280016001018555821561064b579182015b8281111561064a57825182559160200191906001019061062f565b5b509050610658919061065c565b5090565b5b8082111561067557600081600090555060010161065d565b5090565b6000604051905090565b600080fd5b600080fd5b6000819050919050565b6106a08161068d565b81146106ab57600080fd5b50565b6000813590506106bd81610697565b92915050565b6000602082840312156106d9576106d8610683565b5b60006106e7848285016106ae565b91505092915050565b600081519050919050565b600082825260208201905092915050565b60005b8381101561072a57808201518184015260208101905061070f565b83811115610739576000848401525b50505050565b6000601f19601f8301169050919050565b600061075b826106f0565b61076581856106fb565b935061077581856020860161070c565b61077e8161073f565b840191505092915050565b6107928161068d565b82525050565b60008115159050919050565b6107ad81610798565b82525050565b600060608201905081810360008301526107cd8186610750565b90506107dc6020830185610789565b6107e960408301846107a4565b949350505050565b600080fd5b600080fd5b7f4e487b7100000000000000000000000000000000000000000000000000000000600052604160045260246000fd5b6108338261073f565b810181811067ffffffffffffffff82111715610852576108516107fb565b5b80604052505050565b6000610865610679565b9050610871828261082a565b919050565b600067ffffffffffffffff821115610891576108906107fb565b5b61089a8261073f565b9050602081019050919050565b82818337600083830152505050565b60006108c96108c484610876565b61085b565b9050828152602081018484840111156108e5576108e46107f6565b5b6108f08482856108a7565b509392505050565b600082601f83011261090d5761090c6107f1565b5b813561091d8482602086016108b6565b91505092915050565b60006020828403121561093c5761093b610683565b5b600082013567ffffffffffffffff81111561095a57610959610688565b5b610966848285016108f8565b91505092915050565b600073ffffffffffffffffffffffffffffffffffffffff82169050919050565b600061099a8261096f565b9050919050565b6109aa8161098f565b81146109b557600080fd5b50565b6000813590506109c7816109a1565b92915050565b6000602082840312156109e3576109e2610683565b5b60006109f1848285016109b8565b91505092915050565b6000602082019050610a0f60008301846107a4565b92915050565b6000602082019050610a2a6000830184610789565b92915050565b7f50726f706f73616c20646f6573206e6f74206578697374000000000000000000600082015250565b6000610a666017836106fb565b9150610a7182610a30565b602082019050919050565b60006020820190508181036000830152610a9581610a59565b9050919050565b7f596f75206861766520616c726561647920766f74656400000000000000000000600082015250565b6000610ad26016836106fb565b9150610add82610a9c565b602082019050919050565b60006020820190508181036000830152610b0181610ac5565b9050919050565b7f4e487b7100000000000000000000000000000000000000000000000000000000600052601160045260246000fd5b6000610b428261068d565b91507fffffffffffffffffffffffffffffffffffffffffffffffffffffffffffffffff8203610b7457610b73610b08565b5b600182019050919050565b610b888161098f565b82525050565b6000604082019050610ba36000830185610789565b610bb06020830184610b7f565b9392505050565b7f4e487b7100000000000000000000000000000000000000000000000000000000600052602260045260246000fd5b60006002820490506001821680610bfe57607f821691505b602082108103610c1157610c10610bb7565b5b50919050565b6000604082019050610c2c6000830185610789565b8181036020830152610c3e8184610750565b9050939250505056fea264697066735822122080e982b48d5b2ab587d0c9d132fe4bb8a5bb8cb9ef29f14ba79f80f6703ea3f664736f6c634300080d0033",
  "immutableReferences": {},
  "source": "// SPDX-License-Identifier: MIT\r\npragma solidity ^0.8.13;\r\n\r\ncontract Voting {\r\n    // \r\n    struct Proposal {\r\n        string description; // \r\n        uint voteCount;     // \r\n        bool exists;       // ,mappingkey  \r\n    }\r\n\r\n    // ID\r\n    mapping(uint => Proposal) public proposals;\r\n\r\n    // \r\n    mapping(address => bool) public voters;\r\n\r\n    // ID\r\n    uint public proposalCount;\r\n\r\n    // \r\n    event ProposalCreated(uint proposalId, string description);\r\n\r\n    // \r\n    event Voted(uint proposalId, address voter);\r\n\r\n    // \r\n    function createProposal(string memory _description) public {\r\n        proposalCount++;\r\n        proposals[proposalCount] = Proposal({\r\n            description: _description,\r\n            voteCount: 0,\r\n            exists: true\r\n        });\r\n\r\n        emit ProposalCreated(proposalCount, _description);\r\n    }\r\n\r\n    // \r\n    function vote(uint _proposalId) public {\r\n        require(proposals[_proposalId].exists, \"Proposal does not exist\");\r\n        require(!voters[msg.sender], \"You have already voted\");\r\n\r\n        proposals[_proposalId].voteCount++;\r\n        voters[msg.sender] = true;\r\n\r\n        emit Voted(_proposalId, msg.sender);\r\n    }\r\n\r\n    // \r\n    function getVoteCount(uint _proposalId) public view returns (uint) {\r\n        require(proposals[_proposalId].exists, \"Proposal does not exist\");\r\n        return proposals[_proposalId].voteCount;\r\n    }\r\n\r\n    // ID\r\n    function getWinningProposal() public view returns (uint winningProposalId) {\r\n        uint winningVoteCount = 0;\r\n\r\n        for (uint i = 1; i <= proposalCount; i++) {\r\n            if (proposals[i].voteCount > winningVoteCount) {\r\n                winningVoteCount = proposals[i].voteCount;\r\n                winningProposalId = i;\r\n            }\r\n        }\r\n    }\r\n}",
  "sourcePath": "D:\\vscode\\truffleTest\\contracts\\vote.sol",
  "compiler": {
    "name": "solc",
    "version": "0.8.13+commit.abaa5c0e.Emscripten.clang"
  },
  "schemaVersion": "3.4.16",
  "updatedAt": "2025-02-22T09:27:00.996Z",
  "networkType": "ethereum",
  "devdoc": {
    "kind": "dev",
    "methods": {},
    "version": 1
  },
  "userdoc": {
    "kind": "user",
    "methods": {},
    "version": 1
  }
}